:100000000C942A000C94EC090C94160A0C94400AE7
:100010000C9447000C9447000C9447000C94470044
:100020000C9447000C9447000C9447000C94470034
:100030000C9447000C9447000C9447000C94470024
:100040000C9447000C9447000C9447000C94470014
:100050000C94470011241FBECFE5D8E0DEBFCDBF12
:1000600010E0A0E6B0E0E6E5F2E402C005900D92F3
:10007000A03FB107D9F710E0A0EFB0E001C01D929A
:10008000AC3FB107E1F70E9461200C9429210C9448
:100090000000EF92FF920F931F937B018C0120E0F1
:1000A00030E040E05FE40E94F50388238CF0C80153
:1000B000B70120E030E040E05FE40E94C1010E940F
:1000C00055049B01AC01205030404040504806C0D0
:1000D000C801B7010E9455049B01AC01B901CA01D6
:1000E0001F910F91FF90EF900895A0E0B0E0EBE733
:1000F000F0E00C94F220DC012B01FA019C9192308B
:1001000008F439C1EB018881823008F433C194309E
:1001100069F4843009F02FC111969C91119789815F
:10012000981709F428C1A0E6B0E025C1843009F48D
:1001300021C18230A9F4923009F01DC19A01AD01AC
:1001400088E0EA010990AE01E90109929E0181501F
:10015000C1F7E201898111969C918923818308C1AD
:10016000923009F407C112962D903C901397EB0141
:100170008A819B811496AD90BD90CD90DC901797AD
:10018000EC80FD800E811F819101281B390BB90184
:1001900037FF04C066277727621B730B6032710537
:1001A0000CF061C0121613066CF537014801062EDB
:1001B00004C096948794779467940A94D2F721E0C8
:1001C00030E040E050E004C0220F331F441F551FB1
:1001D0006A95D2F721503040404050402E213F21B7
:1001E00040235123211531054105510521F021E01E
:1001F00030E040E050E079018A01E628F72808293C
:1002000019293CC0232BD1F1260E371E350146019A
:10021000062E04C096948794779467940A94D2F734
:1002200021E030E040E050E004C0220F331F441FC3
:10023000551F6A95D2F721503040404050402A2146
:100240003B214C215D21211531054105510521F04E
:1002500021E030E040E050E059016A01A628B728CB
:10026000C828D9280BC0821593052CF01C01AA249C
:10027000BB24650103C0EE24FF24870111969C91E5
:10028000D20111968C91981709F445C0992339F041
:10029000A80197012A193B094C095D0906C0A6016E
:1002A00095012E193F09400B510B57FD08C01182D3
:1002B0003382228224833583468357831DC081E0A5
:1002C00081833382228288279927DC01821B930B4A
:1002D000A40BB50B84839583A683B7830DC0220F2F
:1002E000331F441F551F24833583468357838281E0
:1002F000938101979383828324813581468157813D
:10030000DA01C9010197A109B1098F5F9F4FAF4F72
:10031000BF4328F30BC0918333822282EA0CFB1C7B
:100320000C1D1D1DE482F5820683178383E0808304
:10033000248135814681578157FF1AC0C901AA27F8
:1003400097FDA095BA2F81709070A070B0705695EF
:10035000479537952795822B932BA42BB52B848318
:100360009583A683B7838281938101969383828349
:10037000DF0101C0D201CD01CDB7DEB7E2E10C94BF
:100380000E21A0E2B0E0E7ECF1E00C94FE206983DE
:100390007A838B839C832D833E834F835887E9E048
:1003A000EE2EF12CEC0EFD1ECE010196B7010E943F
:1003B0007E058E010F5E1F4FCE010596B8010E948B
:1003C0007E058A8991E089278A8BC701B801AE0131
:1003D000475E5F4F0E9475000E94A904A096E6E068
:1003E0000C941A21A0E2B0E0E8EFF1E00C94FE20BA
:1003F00069837A838B839C832D833E834F835887C5
:10040000F9E0EF2EF12CEC0EFD1ECE010196B701A6
:100410000E947E058E010F5E1F4FCE010596B8012A
:100420000E947E05C701B801AE01475E5F4F0E9482
:1004300075000E94A904A096E6E00C941A21A0E29F
:10044000B0E0E5E2F2E00C94F22069837A838B83DA
:100450009C832D833E834F835887CE010196BE0136
:10046000675F7F4F0E947E05CE010596BE016F5EDD
:100470007F4F0E947E059985923088F0898982306D
:10048000C8F0943019F4823051F404C0843029F457
:10049000923081F480E690E0C6C0923049F420E0CA
:1004A0009A858A89981321E02A87CE010996BBC0D4
:1004B000823049F420E09A858A89981321E02A8BBA
:1004C000CE014196B0C02D843E844F8458886D88FB
:1004D0007E888F88988CEE24FF248701AA24BB2471
:1004E000650140E050E060E070E0E0E0F0E0C10174
:1004F00081709070892BE9F0E60CF71C081D191D1E
:100500009A01AB012A0D3B1D4C1D5D1D80E090E062
:10051000A0E0B0E0E614F7040805190520F481E036
:1005200090E0A0E0B0E0BA01A901480F591F6A1F8E
:100530007B1FAA0CBB1CCC1CDD1C97FE08C081E0F5
:1005400090E0A0E0B0E0A82AB92ACA2ADB2A3196B6
:10055000E032F10549F0660C771C881C991C569412
:10056000479437942794C3CFFA85EA892B893C892D
:100570008B859C85280F391F2E5F3F4F17C0CA01FE
:1005800081709070892B61F016950795F794E79428
:1005900080E090E0A0E0B0E8E82AF92A0A2B1B2BC3
:1005A00076956795579547952F5F3F4F77FDE7CF36
:1005B0000CC0440F551F661F771F17FD4160EE0CDE
:1005C000FF1C001F111F21503040403090E05907A0
:1005D00090E0690790E4790760F32B8F3C8FDB0193
:1005E000CA018F779070A070B07080349105A1051A
:1005F000B10561F447FD0AC0E114F10401051105DC
:1006000029F0405C5F4F6F4F7F4F40781A8EFE1786
:1006100011F081E08A8F4D8F5E8F6F8F78A383E01A
:10062000898FCE0149960E94A904A096E2E10C941C
:100630000E21A8E1B0E0EFE1F3E00C94FA20698329
:100640007A838B839C832D833E834F835887B9E0C5
:10065000EB2EF12CEC0EFD1ECE010196B7010E948F
:100660007E058E010F5E1F4FCE010596B8010E94D8
:100670007E052985223008F47EC03989323010F495
:10068000B8017CC08A859A8989278A87243011F02D
:10069000223031F4231709F06EC060E670E06EC0BE
:1006A000343039F41D861E861F86188A1C861B86E8
:1006B00004C0323021F484E08987B7015FC02B8504
:1006C0003C858B899C89281B390B3C872B87ED84C3
:1006D000FE840F851889AD88BE88CF88D88CEA142F
:1006E000FB040C051D0540F4EE0CFF1C001F111F40
:1006F000215030403C872B8720E030E040E050E044
:1007000080E090E0A0E0B0E460E070E0EA14FB0478
:100710000C051D0540F0282B392B4A2B5B2BEA18C2
:10072000FB080C091D09B695A79597958795EE0CC2
:10073000FF1C001F111F6F5F7F4F6F31710531F775
:10074000DA01C9018F779070A070B0708034910584
:10075000A105B10561F427FD0AC0E114F10401050A
:10076000110529F0205C3F4F4F4F5F4F20782D87B8
:100770003E874F87588BBE01675F7F4FCB010E943A
:10078000A9046896EAE00C941621A8E1B0E0EBEC2D
:10079000F3E00C94FE2069837A838B839C832D8302
:1007A0003E834F83588789E0E82EF12CEC0EFD1E26
:1007B000CE010196B7010E947E058E010F5E1F4F8C
:1007C000CE010596B8010E947E058985823040F0F1
:1007D0008989823028F0C701B8010E94F60501C05E
:1007E0008FEF6896E6E00C941A21A8E1B0E0EBEFF9
:1007F000F3E00C94FE2069837A838B839C832D83A2
:100800003E834F83588789E0E82EF12CEC0EFD1EC5
:10081000CE010196B7010E947E058E010F5E1F4F2B
:10082000CE010596B8010E947E058985823040F090
:100830008989823028F0C701B8010E94F60501C0FD
:100840008FEF6896E6E00C941A21A8E1B0E0EBE2A5
:10085000F4E00C94FE2069837A838B839C832D8340
:100860003E834F83588789E0E82EF12CEC0EFD1E65
:10087000CE010196B7010E947E058E010F5E1F4FCB
:10088000CE010596B8010E947E058985823040F030
:100890008989823028F0C701B8010E94F60501C09D
:1008A00081E06896E6E00C941A21ACE0B0E0EBE55C
:1008B000F4E00C94022169837A838B839C83CE01BC
:1008C0000196BE016B5F7F4F0E947E058D81823055
:1008D00061F1823050F1843021F48E81882351F10E
:1008E0002EC02F81388537FD20C06E812F31310514
:1008F0001CF06623F9F023C08EE190E0821B930B7D
:1009000029853A854B855C8504C056954795379572
:1009100027958A95D2F76623B1F05095409530958A
:1009200021953F4F4F4F5F4F0EC020E030E040E039
:1009300050E009C02FEF3FEF4FEF5FE704C020E02A
:1009400030E040E050E8B901CA012C96E2E00C9496
:100950001E21DF92EF92FF920F931F93FC01E48020
:10096000F58006811781D1808081823048F480E053
:1009700090E0A0E1B0E0E82AF92A0A2B1B2BA5C0E1
:10098000843009F49FC0823021F4EE24FF248701D3
:1009900005C0E114F1040105110519F4E0E0F0E0EF
:1009A00096C0628173819FEF623879070CF05BC05B
:1009B00022E83FEF261B370B2A3131052CF020E0CF
:1009C00030E040E050E02AC0B801A701022E04C088
:1009D00076956795579547950A94D2F781E090E010
:1009E000A0E0B0E004C0880F991FAA1FBB1F2A9582
:1009F000D2F70197A109B1098E219F21A023B1232C
:100A00000097A105B10521F081E090E0A0E0B0E001
:100A10009A01AB01282B392B4A2B5B2BDA01C90138
:100A20008F779070A070B07080349105A105B105EA
:100A300039F427FF09C0205C3F4F4F4F5F4F04C080
:100A4000215C3F4F4F4F5F4FE0E0F0E02030A0E0EF
:100A50003A07A0E04A07A0E45A0710F0E1E0F0E00E
:100A600079018A0127C06038710564F5FB01E158FE
:100A7000FF4FD801C7018F779070A070B07080349D
:100A80009105A105B10539F4E7FE0DC080E490E0C1
:100A9000A0E0B0E004C08FE390E0A0E0B0E0E80E9A
:100AA000F91E0A1F1B1F17FF05C016950795F7941F
:100AB000E794319687E016950795F794E7948A9521
:100AC000D1F705C0EE24FF248701EFEFF0E06E2F91
:100AD000679566276795902F9F77D794DD24D794E5
:100AE0008E2F8695492F462B582F5D29B701CA01B5
:100AF0001F910F91FF90EF90DF900895FC01DB01B3
:100B0000408151812281622F6F7770E0221F22275E
:100B1000221F9381892F880F822B282F30E0991F65
:100B20009927991F11969C93119721153105A9F5C5
:100B3000411551056105710511F482E037C082E865
:100B40009FEF13969C938E9312979A01AB0167E0E7
:100B5000220F331F441F551F6A95D1F783E08C93F2
:100B60000DC0220F331F441F551F12968D919C916B
:100B70001397019713969C938E931297203080E0E1
:100B8000380780E0480780E4580758F314962D93FF
:100B90003D934D935C93179708952F3F310579F45A
:100BA000411551056105710519F484E08C93089590
:100BB00064FF03C081E08C9312C01C9210C02F57B9
:100BC000304013963C932E93129783E08C9387E0EA
:100BD000440F551F661F771F8A95D1F770641496CE
:100BE0004D935D936D937C93179708951F93DC014C
:100BF000FB019C91923008F447C08081823008F458
:100C000043C0943051F411961C91843099F5818140
:100C1000682F70E0611B71093FC0843021F0923071
:100C200031F48230B9F18181882389F12DC0119688
:100C30001C9111978230F1F081811817D9F4129626
:100C40002D913C911397828193818217930794F0A1
:100C500028173907BCF014968D919D910D90BC9189
:100C6000A02D2481358146815781281739074A07ED
:100C70005B0718F4112341F00AC082179307A407F9
:100C8000B50740F4112319F061E070E005C06FEF83
:100C90007FEF02C060E070E0CB011F9108950F93D9
:100CA0001F93DF93CF9300D000D0CDB7DEB7698319
:100CB0007A838B839C83AAE2B0E0EAE2F0E0808151
:100CC00088618C93A0E4B0E0E0E4F0E08081866885
:100CD0008C9309E210E089819A81AB81BC81880FF5
:100CE000991FAA1FBB1F880F991FAA1FBB1F880F20
:100CF000991FAA1FBB1F880F991FAA1FBB1F9C010A
:100D0000AD0180E092E1AAE7B0E0BC01CD010E9414
:100D1000B520DA01C9018150F801808300E410E0B8
:100D200089819A81AB81BC81880F991FAA1FBB1F43
:100D3000880F991FAA1FBB1F880F991FAA1FBB1FCF
:100D4000880F991FAA1FBB1F9C01AD0180E092E193
:100D5000AAE7B0E0BC01CD010E94B520DA01C901CB
:100D60000197A109B109892F9A2FAB2FBB27F80151
:100D700080830F900F900F900F90CF91DF911F9174
:100D80000F910895DF93CF93CDB7DEB7EBE2F0E09C
:100D900080818823DCF7ECE2F0E08081CF91DF9165
:100DA0000895DF93CF930F92CDB7DEB78983EBE23F
:100DB000F0E08081882F90E0807290700097B9F306
:100DC000ECE2F0E0898180830F90CF91DF9108956C
:100DD000DF93CF9300D00F92CDB7DEB79B838A838A
:100DE00019820EC08981282F30E08A819B81FC0105
:100DF000E20FF31F80810E94D10689818F5F898372
:100E00008981282F30E08A819B81FC01E20FF31F4A
:100E10008081882339F70F900F900F90CF91DF9149
:100E20000895DF93CF9300D0CDB7DEB79A8389833F
:100E3000EBE2F0E080818823DCF7ECE2F0E08081F7
:100E4000E981FA8180830F900F90CF91DF9108950F
:100E5000DF93CF93CDB7DEB7A7E3B0E0E7E3F0E0F1
:100E60008081806B8C93A7E3B0E0E7E3F0E08081C2
:100E70008F7B8C93A8E3B0E0E8E3F0E080818061B1
:100E80008C93ADE2B0E0EDE2F0E0808181658C937F
:100E9000ADE2B0E0EDE2F0E080818D7F8C93AEE2D8
:100EA000B0E0EEE2F0E080818E7F8C93CF91DF9115
:100EB0000895DF93CF93CDB7DEB7ADE2B0E0EDE2BA
:100EC000F0E080818F7E8C93ADE2B0E0EDE2F0E067
:100ED000808180648C93A7E3B0E0E7E3F0E0808159
:100EE0008F7D8C93AAE3B0E0EAE3F0E080818F7716
:100EF0008C93A7E3B0E0E7E3F0E080818F7E8C93F2
:100F0000A7E3B0E0E7E3F0E0808180648C93CF91C9
:100F1000DF910895DF93CF930F92CDB7DEB789832A
:100F2000A8E3B0E0E8E3F0E080818F7E8C93EFE20D
:100F3000F0E089818083EEE2F0E080818823DCF7B5
:100F4000A8E3B0E0E8E3F0E0808180618C930F904B
:100F5000CF91DF910895DF93CF93CDB7DEB7EEE267
:100F6000F0E080818823DCF7EFE2F0E08081CF9130
:100F7000DF910895DF93CF9300D000D00F92CDB7CB
:100F8000DEB79B838A838AE089838A819B8100976D
:100F900019F486E08983E8C0AFE5B0E0EFE5F0E062
:100FA000808180688C93EA81FB818281282F30E0E8
:100FB0003D832C838C819D818130910509F457C03C
:100FC0002C813D812230310509F49EC08C819D81A8
:100FD000009709F0C7C083E062E00E94A3128A81F3
:100FE0009B810E946F09ABE5B0E0EBE5F0E080810A
:100FF00080648C93EA81FB818381823051F4A5E582
:10100000B0E0E5E5F0E0808182608C9383E1898344
:101010002EC0EA81FB818381833051F4A5E5B0E0E5
:10102000E5E5F0E0808183608C9383E189831FC0D4
:10103000EA81FB818381882349F4A5E5B0E0E5E5F9
:10104000F0E080818C9383E1898311C0EA81FB8188
:101050008381813051F4A5E5B0E0E5E5F0E08081E1
:1010600081608C9383E1898302C082E1898383E07C
:1010700063E00E94A3128A819B810E946F09ABE505
:10108000B0E0EBE5F0E0808180688C93EA81FB8141
:101090008381823051F4A5E5B0E0E5E5F0E08081A0
:1010A00088608C9383E189835FC0EA81FB818381BF
:1010B000833051F4A5E5B0E0E5E5F0E080818C6097
:1010C0008C9383E1898350C0EA81FB8183818823EB
:1010D00049F4A5E5B0E0E5E5F0E080818C9383E19B
:1010E000898342C0EA81FB818381813051F4A5E587
:1010F000B0E0E5E5F0E0808184608C9383E1898352
:1011000033C082E1898330C081E062E00E94A31293
:101110008A819B810E946F09ABE5B0E0EBE5F0E0CE
:10112000808180628C93EA81FB818381823049F4E3
:10113000A5E5B0E0E5E5F0E080818C9383E189836B
:1011400011C0EA81FB818381833051F4A5E5B0E0D1
:10115000E5E5F0E0808180648C9383E1898302C0BF
:1011600082E1898382E1898389810F900F900F90BA
:101170000F900F90CF91DF910895DF93CF9300D020
:1011800000D00F92CDB7DEB79B838A838AE0898334
:101190008A819B81009719F486E0898337C0AFE587
:1011A000B0E0EFE5F0E080818F778C9389E0898370
:1011B000EA81FB818281282F30E03D832C838C8162
:1011C0009D818130910581F02C813D812230310556
:1011D00099F08C819D810097B9F4ABE5B0E0EBE527
:1011E000F0E080818F7B8C93ABE5B0E0EBE5F0E045
:1011F00080818F778C930AC0ABE5B0E0EBE5F0E03F
:1012000080818F7D8C9302C082E1898389810F90D8
:101210000F900F900F900F90CF91DF910895DF9373
:10122000CF9300D00F92CDB7DEB79B838A838AE03D
:1012300089838A819B81009749F089E089838A812B
:101240009B819093F1008093F00002C086E0898337
:1012500089810F900F900F90CF91DF910895DF93C8
:10126000CF9300D00F92CDB7DEB79B838A838AE0FD
:1012700089838A819B81009749F089E089838A81EB
:101280009B819093F3008093F20002C086E08983F3
:1012900089810F900F900F90CF91DF910895DF9388
:1012A000CF9300D00F92CDB7DEB79B838A838AE0BD
:1012B00089838A819B81009749F089E089838A81AB
:1012C0009B819093F5008093F40002C086E08983AF
:1012D00089810F900F900F90CF91DF910895DF9348
:1012E000CF9300D000D00F92CDB7DEB79B838A8317
:1012F0008AE089838A819B81009719F486E089833B
:101300002CC0EA81FB818281282F30E03D832C8331
:101310008C819D818130910589F02C813D81223025
:101320003105A1F08C819D810097B9F4EA81FB81A0
:10133000808191810E940F0989830FC0EA81FB811E
:10134000808191810E942F09898307C0EA81FB81F6
:10135000808191810E944F09898389810F900F902C
:101360000F900F900F90CF91DF910895DF93CF935F
:10137000CDB7DEB78091F0009091F100009729F091
:10138000E091F000F091F1000995CF91DF9108957F
:10139000DF93CF93CDB7DEB78091F2009091F30049
:1013A000009729F0E091F200F091F3000995CF91B8
:1013B000DF910895DF93CF93CDB7DEB78091F4002E
:1013C0009091F500009729F0E091F400F091F5007C
:1013D0000995CF91DF9108951F920F920FB60F924A
:1013E00011242F933F934F935F936F937F938F932A
:1013F0009F93AF93BF93EF93FF93DF93CF93CDB7BB
:10140000DEB70E94B609CF91DF91FF91EF91BF91B6
:10141000AF919F918F917F916F915F914F913F918C
:101420002F910F900FBE0F901F9018951F920F9243
:101430000FB60F9211242F933F934F935F936F93A7
:101440007F938F939F93AF93BF93EF93FF93DF931C
:10145000CF93CDB7DEB70E94C809CF91DF91FF913E
:10146000EF91BF91AF919F918F917F916F915F911C
:101470004F913F912F910F900FBE0F901F90189595
:101480001F920F920FB60F9211242F933F934F93F9
:101490005F936F937F938F939F93AF93BF93EF93DC
:1014A000FF93DF93CF93CDB7DEB70E94DA09CF91D8
:1014B000DF91FF91EF91BF91AF919F918F917F91BC
:1014C0006F915F914F913F912F910F900FBE0F90B1
:1014D0001F901895DF93CF93CDB7DEB7E0E2F0E031
:1014E00080E28083A1E2B0E0E1E2F0E080818C7FE5
:1014F0008C93CF91DF910895DF93CF9300D00F921B
:10150000CDB7DEB78A83A6E5B0E0E6E5F0E08081FE
:10151000846A8C93E6E5F0E080818823DCF7E1E2E1
:10152000F0E08081887F89838981883011F01B8277
:1015300020C0E3E2F0E08A818083E6E5F0E084E821
:101540008083E6E5F0E080818823DCF7E1E2F0E0EB
:101550008081887F89838981883119F481E08B8338
:1015600008C08981803219F482E08B8302C083E055
:101570008B838B810F900F900F90CF91DF91089507
:10158000DF93CF9300D00F92CDB7DEB78A83A6E565
:10159000B0E0E6E5F0E08081846A8C93E6E5F0E077
:1015A00080818823DCF7E1E2F0E08081887F898315
:1015B0008981803111F01B8220C0E3E2F0E08A8152
:1015C0008083E6E5F0E084E88083E6E5F0E0808172
:1015D0008823DCF7E1E2F0E08081887F89838981DC
:1015E000803419F481E08B8308C08981883419F430
:1015F00082E08B8302C083E08B838B810F900F90FE
:101600000F90CF91DF910895DF93CF9300D00F9289
:10161000CDB7DEB78A83E3E2F0E08A818083A6E576
:10162000B0E0E6E5F0E0808184688C93E6E5F0E0E8
:1016300080818823DCF7E1E2F0E08081887F898384
:101640008981883211F41B8208C08981803319F4A2
:1016500081E08B8302C082E08B838B810F900F909F
:101660000F90CF91DF910895DF93CF93CDB7DEB781
:10167000E6E5F0E084EC8083E6E5F0E08081882315
:10168000DCF7E3E2F0E08081CF91DF910895DF9312
:10169000CF93CDB7DEB7E6E5F0E084E88083E6E5FA
:1016A000F0E080818823DCF7E3E2F0E08081CF91F5
:1016B000DF910895DF93CF930F92CDB7DEB7898383
:1016C000E2E2F0E089818083A6E5B0E0E6E5F0E0C3
:1016D0008081846C8C930F90CF91DF910895DF937C
:1016E000CF9300D0CDB7DEB7E6E5F0E08081882368
:1016F000DCF7E1E2F0E08081887F898389818036B0
:1017000049F08981883631F08981803819F08981E2
:10171000883811F41A8217C08981883A19F08981B2
:10172000803B19F481E08A830EC08981803719F0EB
:101730008981883719F482E08A8305C08981803ADB
:1017400099F683E08A838A810F900F90CF91DF9181
:101750000895DF93CF9300D00F92CDB7DEB78A8381
:10176000E3E2F0E08A818083E6E5F0E084EC8083C8
:10177000E6E5F0E080818823DCF7E1E2F0E08081BB
:10178000887F89838981803A51F4A6E5B0E0E6E557
:10179000F0E0808180688C938FEF8B831AC0898101
:1017A000883B11F41B8215C08981803C51F4A6E569
:1017B000B0E0E6E5F0E0808180688C938EEF8B836B
:1017C00008C08981883C19F48DEF8B8302C08CEFAF
:1017D0008B838B810F900F900F90CF91DF910895A5
:1017E000DF93CF930F92CDB7DEB7E6E5F0E084EC60
:1017F0008083E6E5F0E080818823DCF7E1E2F0E039
:101800008081887F89838EEF0F90CF91DF9108953B
:10181000DF93CF93CDB7DEB7E6E5F0E084E98083D0
:10182000E6E5F0E08081882F90E08071907000976D
:10183000B9F7CF91DF910895DF93CF930F92CDB792
:10184000DEB78983E0E2F0E082E08083A1E2B0E0ED
:10185000E1E2F0E080818C938981882F90E000970D
:1018600029F0E2E2F0E08981880F8083A6E5B0E00C
:10187000E6E5F0E0808184648C930F90CF91DF9156
:101880000895DF93CF930F92CDB7DEB78983898117
:10189000882F90E0009729F0E2E2F0E08981880F3C
:1018A0008083A6E5B0E0E6E5F0E08081846C8C936F
:1018B0000F90CF91DF910895DF93CF9300D0CDB7F4
:1018C000DEB782E08A83A6E5B0E0E6E5F0E080815D
:1018D00080628C93A6E5B0E0E6E5F0E08081806868
:1018E0008C93E6E5F0E080818823DCF7E1E2F0E02C
:1018F0008081887F89838981883011F083E08A83A1
:101900008A810F900F90CF91DF910895DF93CF934D
:1019100000D0CDB7DEB782E08A83A6E5B0E0E6E589
:10192000F0E0808180628C93A6E5B0E0E6E5F0E02F
:10193000808180688C93E6E5F0E080818823DCF785
:10194000E1E2F0E08081887F89838981803111F034
:1019500084E08A838A810F900F90CF91DF91089560
:10196000DF93CF9300D00F92CDB7DEB78B8382E0A9
:101970008A838B81882F90E0009799F1E3E2F0E071
:101980008B81880F8083A3E2B0E0E3E2F0E0808106
:101990008E7F8C93A6E5B0E0E6E5F0E080818F7D58
:1019A0008C93A6E5B0E0E6E5F0E0808180688C935A
:1019B000E6E5F0E080818823DCF7E1E2F0E0808179
:1019C000887F89838981883119F485E08A830AC0F8
:1019D0008981803219F486E08A8304C081E18A8398
:1019E00001C01A828A810F900F900F90CF91DF91E2
:1019F0000895DF93CF9300D00F92CDB7DEB78B83DE
:101A000082E08A838B81882F90E0009799F1E3E24E
:101A1000F0E08B81880F8083A3E2B0E0E3E2F0E0A6
:101A200080818E7F8C93A6E5B0E0E6E5F0E08081D2
:101A30008F7D8C93A6E5B0E0E6E5F0E080818068DC
:101A40008C93E6E5F0E080818823DCF7E1E2F0E0CA
:101A50008081887F89838981803419F489E08A8331
:101A60000AC08981883419F48AE08A8304C082E13B
:101A70008A8301C01A828A810F900F900F90CF91B4
:101A8000DF910895DF93CF9300D00F92CDB7DEB7EB
:101A90008B8382E08A83E3E2F0E08B818083A6E59A
:101AA000B0E0E6E5F0E0808180688C93E6E5F0E068
:101AB00080818823DCF7E1E2F0E08081887F898300
:101AC0008981883219F487E08A8308C0898180334C
:101AD00019F488E08A8302C083E18A838A810F90A7
:101AE0000F900F90CF91DF910895DF93CF9300D0A7
:101AF00000D0CDB7DEB79C838B8382E08A838B8155
:101B00009C81009731F1A6E5B0E0E6E5F0E0808148
:101B100080688C93E6E5F0E080818823DCF7E1E2E1
:101B2000F0E08081887F89838981803549F4E3E210
:101B3000F0E08081EB81FC8180838BE08A830BC0A5
:101B40008981883519F48CE08A8305C084E18A8311
:101B500002C081E08A838A810F900F900F900F90CE
:101B6000CF91DF910895DF93CF93CDB7DEB7A6E590
:101B7000B0E0E6E5F0E0808180618C93A6E5B0E01E
:101B8000E6E5F0E0808180688C93CF91DF91089545
:101B9000DF93CF9300D00F92CDB7DEB78B8382E077
:101BA0008A83E3E2F0E08B818083A6E5B0E0E6E59E
:101BB000F0E08081846C8C93E6E5F0E080818823FE
:101BC000DCF7E1E2F0E08081887F89838981803AD7
:101BD00049F4A6E5B0E0E6E5F0E0808180688C930A
:101BE0008DE08A838A810F900F900F90CF91DF91C3
:101BF0000895DF93CF9300D000D00F92CDB7DEB71A
:101C00008A836B8381E089838A81882361F08A815A
:101C1000813049F08A81823031F08A81833019F035
:101C200081E0898333C019828A81282F30E03D8387
:101C30002C838C819D8181309105D1F02C813D8157
:101C4000223031052CF48C819D81009761F01EC0FB
:101C50002C813D812230310581F08C819D81833042
:101C6000910581F013C0EBE3F0E08B8180830EC01F
:101C7000E8E3F0E08B81808309C0E5E3F0E08B814D
:101C8000808304C0E2E3F0E08B81808389810F9040
:101C90000F900F900F900F90CF91DF910895DF93E9
:101CA000CF93CDB7DEB728970FB6F894DEBF0FBE3F
:101CB000CDBF8A836B834C8381E089838A818823AB
:101CC00061F08A81813049F08A81823031F08A81E5
:101CD000833019F081E089834CC18B81883018F002
:101CE00083E0898346C182E089838C81813009F059
:101CF000ACC08A81282F30E038872F836F817885A8
:101D00006130710599F18F8198858230910534F4A5
:101D10002F8138852115310571F079C06F81788563
:101D20006230710509F43DC08F819885833091053B
:101D300009F452C06CC08A816B8141E00E9432106C
:101D4000ABE3B0E0EBE3F0E08081482F8C81282FFB
:101D500030E08B81882F90E0B90102C0660F771FB9
:101D60008A95E2F7CB01842B8C9303C18A816B8126
:101D700041E00E943210A8E3B0E0E8E3F0E08081A7
:101D8000482F8C81282F30E08B81882F90E0B9017B
:101D900002C0660F771F8A95E2F7CB01842B8C93E4
:101DA000E8C08A816B8141E00E943210A5E3B0E077
:101DB000E5E3F0E08081482F8C81282F30E08B8193
:101DC000882F90E0B90102C0660F771F8A95E2F76D
:101DD000CB01842B8C93CDC08A816B8141E00E9422
:101DE0003210A2E3B0E0E2E3F0E08081482F8C8182
:101DF000282F30E08B81882F90E0B90102C0660F58
:101E0000771F8A95E2F7CB01842B8C93B2C08A812D
:101E10006B8141E00E943210ABE3B0E0EBE3F0E015
:101E200080818C93ABE3B0E0EBE3F0E080818C93B6
:101E3000ABE3B0E0EBE3F0E080818C93A2E3B0E0B1
:101E4000E2E3F0E080818C9394C08C81882309F0D8
:101E50008EC08A81282F30E03E832D836D817E8164
:101E60006130710561F18D819E818230910534F47C
:101E70002D813E812115310569F060C06D817E8123
:101E80006230710589F18D819E818330910509F45D
:101E900040C054C0ABE3B0E0EBE3F0E08081482FFA
:101EA0008B81282F30E081E090E0022E02C0880F65
:101EB000991F0A94E2F7809584238C935AC0A8E373
:101EC000B0E0E8E3F0E08081482F8B81282F30E0FC
:101ED00081E090E0022E02C0880F991F0A94E2F779
:101EE000809584238C9345C0A5E3B0E0E5E3F0E062
:101EF0008081482F8B81282F30E081E090E0022EF6
:101F000002C0880F991F0A94E2F7809584238C936E
:101F100030C0A2E3B0E0E2E3F0E08081482F8B81A3
:101F2000282F30E081E090E0022E02C0880F991F38
:101F30000A94E2F7809584238C931BC0ABE3B0E056
:101F4000EBE3F0E080818C93ABE3B0E0EBE3F0E017
:101F500080818C93ABE3B0E0EBE3F0E080818C9385
:101F6000A2E3B0E0E2E3F0E080818C9302C084E081
:101F70008983898128960FB6F894DEBF0FBECDBF46
:101F8000CF91DF910895DF93CF9300D000D00F92CF
:101F9000CDB7DEB78A836B8381E089838A8188230A
:101FA00061F08A81813049F08A81823031F08A8102
:101FB000833019F081E089834CC019828A81282FEF
:101FC00030E03D832C838C819D8181309105D1F05F
:101FD0002C813D81223031052CF48C819D8100972C
:101FE00061F01FC02C813D812230310581F08C8150
:101FF0009D818330910581F014C0EAE3F0E08B818C
:10200000808327C0E7E3F0E08B81808322C0E4E394
:10201000F0E08B8180831DC0E1E3F0E08B81808361
:1020200018C0AAE3B0E0EAE3F0E080818C93A7E374
:10203000B0E0E7E3F0E080818C93A4E3B0E0E4E378
:10204000F0E080818C93A1E3B0E0E1E3F0E08081F7
:102050008C9389810F900F900F900F900F90CF91DC
:10206000DF910895DF93CF93CDB7DEB728970FB6F2
:10207000F894DEBF0FBECDBF8A836B834C8381E0B3
:1020800089838A81882361F08A81813049F08A813D
:10209000823031F08A81833019F081E089833BC13D
:1020A00019828B81883018F083E0898334C182E003
:1020B00089838C81813009F092C08A81282F30E099
:1020C00038872F836F8178856130710569F18F8141
:1020D00098858230910534F42F813885211531059A
:1020E00069F064C06F8178856230710599F18F81E4
:1020F00098858330910509F443C058C0AAE3B0E045
:10210000EAE3F0E08081482F8C81282F30E08B813A
:10211000882F90E0B90102C0660F771F8A95E2F719
:10212000CB01842B8C93F7C0A7E3B0E0E7E3F0E0AA
:102130008081482F8C81282F30E08B81882F90E080
:10214000B90102C0660F771F8A95E2F7CB01842B95
:102150008C93E1C0A4E3B0E0E4E3F0E08081482F99
:102160008C81282F30E08B81882F90E0B90102C04C
:10217000660F771F8A95E2F7CB01842B8C93CBC037
:10218000A1E3B0E0E1E3F0E08081482F8C81282FCB
:1021900030E08B81882F90E0B90102C0660F771F75
:1021A0008A95E2F7CB01842B8C93B5C0AAE3B0E00B
:1021B000EAE3F0E080818C93A7E3B0E0E7E3F0E0AE
:1021C00080818C93A4E3B0E0E4E3F0E080818C9321
:1021D000A1E3B0E0E1E3F0E080818C939CC08C81CE
:1021E000882309F096C08A81282F30E03E832D8312
:1021F0006D817E816130710571F18D819E818230AA
:10220000910534F42D813E812115310569F068C0B6
:102210006D817E8162307105A9F18D819E8183304F
:10222000910509F446C05CC0AAE3B0E0EAE3F0E03F
:102230008081482F8C81282F30E08B81882F90E07F
:10224000B90102C0660F771F8A95E2F7CB0180952E
:1022500084238C9360C0A7E3B0E0E7E3F0E08081E3
:10226000482F8C81282F30E08B81882F90E0B90196
:1022700002C0660F771F8A95E2F7CB018095842311
:102280008C9349C0A4E3B0E0E4E3F0E08081482F00
:102290008C81282F30E08B81882F90E0B90102C01B
:1022A000660F771F8A95E2F7CB01809584238C9384
:1022B00032C0A1E3B0E0E1E3F0E08081482F8C81FF
:1022C000282F30E08B81882F90E0B90102C0660F83
:1022D000771F8A95E2F7CB01809584238C931BC0EE
:1022E000AAE3B0E0EAE3F0E080818C93A7E3B0E0FA
:1022F000E7E3F0E080818C93A4E3B0E0E4E3F0E076
:1023000080818C93A1E3B0E0E1E3F0E080818C93E5
:1023100002C084E08983898128960FB6F894DEBFD5
:102320000FBECDBFCF91DF910895DF93CF9300D043
:1023300000D000D0CDB7DEB78A837C836B8381E089
:1023400089838A81882361F08A81813049F08A817A
:10235000823031F08A81833019F081E0898342C074
:1023600082E089838A81282F30E03E832D838D810E
:102370009E8181309105E1F02D813E812230310531
:102380002CF48D819E81009761F026C02D813E81C5
:1023900022303105A1F08D819E8183309105B1F00D
:1023A0001BC0E9E3F0E08081EB81FC81808314C0F5
:1023B000E6E3F0E08081EB81FC8180830DC0E3E304
:1023C000F0E08081EB81FC81808306C0E0E3F0E0F7
:1023D0008081EB81FC8180838B819C81009711F44B
:1023E00086E08983898126960FB6F894DEBF0FBEFA
:1023F000CDBFCF91DF910895DF93CF93CDB7DEB7F7
:1024000027970FB6F894DEBF0FBECDBF8A836B83CC
:102410005D834C8381E089838A81882361F08A818E
:10242000813049F08A81823031F08A81833019F01D
:1024300081E089837EC08B81883018F083E08983B6
:1024400078C082E089838A81282F30E03F832E8301
:102450004E815F814130510559F18E819F818230DB
:10246000910534F42E813F812115310569F05BC05F
:102470004E815F814230510579F18E819F81833099
:10248000910509F43DC04FC0E9E3F0E08081282FB9
:1024900030E08B81882F90E0A90102C055954795C7
:1024A0008A95E2F7CA018170EC81FD8180833BC08F
:1024B000E6E3F0E08081282F30E08B81882F90E0E8
:1024C000A90102C0559547958A95E2F7CA01817026
:1024D000EC81FD81808327C0E3E3F0E08081282F39
:1024E00030E08B81882F90E0A90102C05595479577
:1024F0008A95E2F7CA018170EC81FD81808313C067
:10250000E0E3F0E08081282F30E08B81882F90E09D
:10251000A90102C0559547958A95E2F7CA018170D5
:10252000EC81FD8180838C819D81009711F486E090
:102530008983898127960FB6F894DEBF0FBECDBF81
:10254000CF91DF910895DF93CF9300D00F92CDB755
:10255000DEB78A836B8381E089838A81882361F077
:102560008A81813049F08A81823031F08A818330DA
:1025700019F081E0898312C08B81883018F083E0E4
:1025800089830CC082E089838A816B8140E00E944C
:1025900032108A816B8141E00E944F0E89810F9039
:1025A0000F900F90CF91DF910895DF93CF9300D0DC
:1025B000CDB7DEB79A838983A7E2B0E0E7E2F0E027
:1025C0002081E981FA819281E981FA818181982BC8
:1025D000E981FA818081892B822B8C93A6E2B0E07D
:1025E000E6E2F0E09081E981FA818381892B8C9386
:1025F000A6E2B0E0E6E2F0E0808180688C930F9084
:102600000F90CF91DF910895DF93CF9300D00F9279
:10261000CDB7DEB7A6E2B0E0E6E2F0E0808180640C
:102620008C93E6E2F0E0808182958F70882F90E0B5
:10263000817090700097A9F3E4E2F0E080818983D3
:10264000E5E2F0E08081882F90E0982F88279B8337
:102650008A838981282F30E08A819B81820F931F92
:102660009B838A838A819B810F900F900F90CF91DB
:10267000DF910895DF93CF9300D000D00F92CDB7B4
:10268000DEB78C836D8381E08B831092F70010920C
:10269000F6001A820CC09A818D81981719F48CE08B
:1026A0008B830AC08DE08B838A818F5F8A839091B0
:1026B00078008A81891778F38D81282F30E0C9014D
:1026C000880F991F820F931F880F991F84599F4F5E
:1026D0009093F7008093F6008091F6009091F700B8
:1026E000009719F486E08B83C1C08C818A3018F082
:1026F0008BE08B83BBC0E091F600F091F700818105
:102700008823C1F0E091F600F091F70081818130DB
:1027100089F0E091F600F091F7008181823051F06C
:10272000E091F600F091F7008181833019F081E0AB
:102730008B839CC0198210C0E091F600F091F700E5
:1027400090818981981719F48CE08B830AC08DE001
:102750008B8389818F5F8983909178008981891724
:1027600058F38B818C3009F081C0E091F600F09134
:10277000F70082818130D1F5E091F600F091F70009
:102780008381E091F600F091F7009481692F4FEF7B
:102790000E943210E091F600F091F7008381E09101
:1027A000F600F091F7002481E091F600F091F70037
:1027B0009581622F492F0E944F0EE091F600F09113
:1027C000F70081816FEF0E94C30FE091F600F09156
:1027D000F70021818C81882F90E0FC01E555FF4FA7
:1027E0009081822F692F0E94F90D40C0E091F60080
:1027F000F091F70082818823C9F5E091F600F0910D
:10280000F7008381E091F600F091F7009481692F41
:102810004FEF0E943210E091F600F091F7008381B3
:10282000E091F600F091F7002481E091F600F0913C
:10283000F7009581622F492F0E944F0EE091F6001C
:10284000F091F70081816FEF0E94C30FE091F600D5
:10285000F091F70021818C81882F90E0FC01EB54EE
:10286000FF4F9081822F692F0E94F90D8B810F906D
:102870000F900F900F900F90CF91DF910895DF93FD
:10288000CF93CDB7DEB767970FB6F894DEBF0FBE14
:10289000CDBF898B81E0888B8989843618F08EE0E2
:1028A000888BCBC0188A1F860BC089899AE0692F54
:1028B0000E94A92060E00E943A138F858F5F8F8766
:1028C0008F85823390F380E090E0A0EFB1E48B87B6
:1028D0009C87AD87BE876B857C858D859E8520E036
:1028E00030E04AEF54E40E941F02DC01CB018F83E9
:1028F0009887A987BA876F81788589859A8520E02E
:1029000030E040E85FE30E94250488232CF481E056
:1029100090E09E838D833FC06F81788589859A85FD
:1029200020E03FEF4FE757E40E94C50318164CF52F
:102930006B857C858D859E8520E030E040E251E40A
:102940000E941F02DC01CB01BC01CD010E944900A5
:10295000DC01CB019E838D830FC088EC90E09C83CB
:102960008B838B819C810197F1F79C838B838D8175
:102970009E8101979E838D838D819E81009769F74B
:1029800014C06F81788589859A850E944900DC0191
:10299000CB019E838D838D819E819A8389838981DA
:1029A0009A810197F1F79A838983E091F600F0917B
:1029B000F70083818F8BE091F600F091F70084811E
:1029C0008E8BE091F600F091F70085811D8A8823B7
:1029D00011F481E08D8B8F896E894D890E944F0E95
:1029E0001F860CC089899AE0692F0E94A920892F2F
:1029F00061E00E943A138F858F5F8F878F858639BC
:102A000088F31F86E091F600F091F70083818C8BAC
:102A1000E091F600F091F70084818B8BE091F60055
:102A2000F091F70085811A8A882311F481E08A8B5E
:102A30008C896B894A890E944F0E888967960FB6E8
:102A4000F894DEBF0FBECDBFCF91DF910895DF9325
:102A5000CF9300D000D0CDB7DEB79C838B8386E0C8
:102A60008A838B819C81009719F486E08A8337C022
:102A700019820EC0EB81FC8190818981981719F42D
:102A800087E08A830AC088E08A8389818F5F89838F
:102A9000909179008981891768F38A818730F9F4E8
:102AA0008AE08A83EB81FC8181E08383EB81FC8176
:102AB0008181EB81FC819281692F41E00E9432107B
:102AC000EB81FC818181EB81FC812281EB81FC81A6
:102AD0009381622F492F0E944F0E89E08A838A8159
:102AE0000F900F900F900F90CF91DF910895DF938B
:102AF000CF9300D000D0CDB7DEB79C838B8386E028
:102B00008A838B819C81009719F486E08A8336C082
:102B100019820EC0EB81FC8190818981981719F48C
:102B200087E08A830AC088E08A8389818F5F8983EE
:102B3000909179008981891768F38A818730F1F44F
:102B400089E08A83EB81FC811382EB81FC818181A6
:102B5000EB81FC819281692F41E00E943210EB8170
:102B6000FC818181EB81FC812281EB81FC8193815D
:102B7000622F492F0E944F0E8AE08A838A810F902C
:102B80000F900F900F90CF91DF910895DF93CF9327
:102B900000D00F92CDB7DEB79B838A8386E089830E
:102BA0008A819B81009719F486E0898315C0EA81A8
:102BB000FB818381813031F48A819B810E9477156A
:102BC00089830AC0EA81FB818381882329F48A8171
:102BD0009B810E942715898389810F900F900F9008
:102BE000CF91DF9108950F931F93DF93CF93CDB7CC
:102BF000DEB7CE55D0400FB6F894DEBF0FBECDBFC6
:102C000086E890E09093FB008093FA00E091FA0050
:102C1000F091FB0080816FEF0E94C30FE091FA00FA
:102C2000F091FB008181E091FA00F091FB0093812B
:102C3000692F41E00E943210E091FA00F091FB0010
:102C40008181E091FA00F091FB009481692F41E0CD
:102C50000E943210E091FA00F091FB008181E09136
:102C6000FA00F091FB009281692F41E00E9432103E
:102C7000FE01E55AFF4F80E090E0A0EFB1E48083D1
:102C80009183A283B3838E01095A1F4FFE01E55A37
:102C9000FF4F608171818281938120E030E04AEFB3
:102CA00054E40E941F02DC01CB01F8018083918370
:102CB000A283B383FE01E95AFF4F60817181828153
:102CC000938120E030E040E85FE30E942504882300
:102CD00044F4FE01EB5AFF4F81E090E09183808342
:102CE00064C0FE01E95AFF4F608171818281938146
:102CF00020E03FEF4FE757E40E94C50318160CF0A1
:102D000043C0FE01E55AFF4F60817181828193814A
:102D100020E030E040E251E40E941F02DC01CB01E0
:102D20008E010B5A1F4FBC01CD010E944900DC01EE
:102D3000CB01F801918380831FC0FE01ED5AFF4F44
:102D400088EC90E091838083FE01ED5AFF4F8081F3
:102D500091810197F1F7FE01ED5AFF4F9183808336
:102D6000DE01AB5ABF4FFE01EB5AFF4F80819181CC
:102D7000019711969C938E93FE01EB5AFF4F808131
:102D800091810097D1F627C08E010B5A1F4FFE018B
:102D9000E95AFF4F60817181828193810E944900CD
:102DA000DC01CB01F80191838083DE01AF5ABF4F74
:102DB000FE01EB5AFF4F808191818D939C93FE0120
:102DC000EF5AFF4F808191810197F1F7FE01EF5A91
:102DD000FF4F9183808382E00E94C219FE01E35B72
:102DE000FF4F80E090E0A0E7B1E480839183A2836D
:102DF000B3838E01075B1F4FFE01E35BFF4F6081D2
:102E00007181828193812BEA3AEA4AE250E40E947E
:102E10001F02DC01CB01F80180839183A283B3837D
:102E2000FE01E75BFF4F608171818281938120E029
:102E300030E040E85FE30E942504882334F4FE017B
:102E4000E85BFF4F81E08083B4C0FE01E75BFF4F8A
:102E5000608171818281938120E030E04FE753E40B
:102E60000E94C50318160CF094C0FE01E35BFF4FEF
:102E7000608171818281938120E030E04AE754E4EF
:102E80000E941903DC01CB01FE01EC5BFF4F808344
:102E90009183A283B3838E01005C1F4FFE01EC5B24
:102EA000FF4F608171818281938120E030E04AEFA1
:102EB00054E40E941F02DC01CB01F801808391835E
:102EC000A283B383FE01E05CFF4F60817181828148
:102ED000938120E030E040E85FE30E9425048823EE
:102EE0002CF481E090E09FAF8EAF48C0FE01E05C23
:102EF000FF4F608171818281938120E03FEF4FE736
:102F000057E40E94C503181664F5FE01EC5BFF4F01
:102F1000608171818281938120E030E040E251E460
:102F20000E941F02DC01CB01BC01CD010E944900BF
:102F3000DC01CB019FAF8EAF0FC088EC90E09DAF5E
:102F40008CAF8CAD9DAD0197F1F79DAF8CAF8EAD81
:102F50009FAD01979FAF8EAF8EAD9FAD009769F784
:102F600031C0FE01E05CFF4F6081718182819381FD
:102F70000E944900DC01CB019FAF8EAF8EAD9FADAB
:102F80009BAF8AAF8AAD9BAD0197F1F79BAF8AAF3C
:102F900019C08E01085B1F4FFE01E75BFF4F608188
:102FA0007181828193810E944900DC01CB01F8018B
:102FB0008083FE01E85BFF4F808189AF89AD8A95F0
:102FC000F1F789AF88E30E94C21980E090E0A0E8A1
:102FD000BFE38DAB9EABAFABB8AF6DA97EA98FA998
:102FE00098AD20E030E04AEF54E40E941F02DC017B
:102FF000CB0189AB9AABABABBCAB69A97AA98BA966
:103000009CA920E030E040E85FE30E94250488238B
:103010002CF481E090E098AB8FA73FC069A97AA912
:103020008BA99CA920E03FEF4FE757E40E94C5031E
:1030300018164CF56DA97EA98FA998AD20E030E057
:1030400040E251E40E941F02DC01CB01BC01CD0132
:103050000E944900DC01CB0198AB8FA70FC088EC20
:1030600090E09EA78DA78DA59EA50197F1F79EA73D
:103070008DA78FA598A9019798AB8FA78FA598A921
:10308000009769F714C069A97AA98BA99CA90E9425
:103090004900DC01CB0198AB8FA78FA598A99CA70D
:1030A0008BA78BA59CA50197F1F79CA78BA78CE01C
:1030B0000E94C21980E090E0A0E8BFE38FA398A728
:1030C000A9A7BAA76FA178A589A59AA520E030E0A5
:1030D0004AEF54E40E941F02DC01CB018BA39CA3A6
:1030E000ADA3BEA36BA17CA18DA19EA120E030E089
:1030F00040E85FE30E94250488232CF481E090E0FF
:103100009AA389A33FC06BA17CA18DA19EA120E0C1
:103110003FEF4FE757E40E94C50318164CF56FA127
:1031200078A589A59AA520E030E040E251E40E940C
:103130001F02DC01CB01BC01CD010E944900DC0172
:10314000CB019AA389A30FC088EC90E098A38F8F3E
:103150008F8D98A10197F1F798A38F8F89A19AA1DC
:1031600001979AA389A389A19AA1009769F714C02E
:103170006BA17CA18DA19EA10E944900DC01CB0125
:103180009AA389A389A19AA19E8F8D8F8D8D9E8DE3
:103190000197F1F79E8F8D8F81E00E94C21980E028
:1031A00090E0A0E7B1E4898F9A8FAB8FBC8F698DD7
:1031B0007A8D8B8D9C8D20E030E04AEF54E40E94A4
:1031C0001F02DC01CB018D8B9E8BAF8BB88F6D897D
:1031D0007E898F89988D20E030E040E85FE30E948F
:1031E000250488232CF481E090E09C8B8B8B3FC0DE
:1031F0006D897E898F89988D20E03FEF4FE757E4F6
:103200000E94C50318164CF5698D7A8D8B8D9C8DA7
:1032100020E030E040E251E40E941F02DC01CB01DB
:10322000BC01CD010E944900DC01CB019C8B8B8B42
:103230000FC088EC90E09A8B898B89899A890197D5
:10324000F1F79A8B898B8B899C8901979C8B8B8B4F
:103250008B899C89009769F714C06D897E898F8955
:10326000988D0E944900DC01CB019C8B8B8B8B8954
:103270009C89988B8F878F8598890197F1F7988B18
:103280008F8786E00E94C21980E090E0A0E0B0E461
:103290008B879C87AD87BE876B857C858D859E855A
:1032A00020E030E04AEF54E40E941F02DC01CB0131
:1032B0008F839887A987BA876F81788589859A8552
:1032C00020E030E040E85FE30E94250488232CF4EE
:1032D00081E090E09E838D833FC06F8178858985F2
:1032E0009A8520E03FEF4FE757E40E94C503181688
:1032F0004CF56B857C858D859E8520E030E040E235
:1033000051E40E941F02DC01CB01BC01CD010E94EF
:103310004900DC01CB019E838D830FC088EC90E0D7
:103320009C838B838B819C810197F1F79C838B839A
:103330008D819E8101979E838D838D819E810097D3
:1033400069F714C06F81788589859A850E94490044
:10335000DC01CB019E838D838D819E819A8389833D
:1033600089819A810197F1F79A838983C25ADF4F45
:103370000FB6F894DEBF0FBECDBFCF91DF911F9186
:103380000F910895DF93CF93CDB7DEB76D970FB64A
:10339000F894DEBF0FBECDBF8D8F86E890E090938E
:1033A000FB008093FA00E091FA00F091FB0081812C
:1033B000E091FA00F091FB009281692F40E00E94B9
:1033C0004F0EE091FA00F091FB008181E091FA004C
:1033D000F091FB009481692F40E00E944F0EE09134
:1033E000FA00F091FB008181E091FA00F091FB007E
:1033F0009381692F41E00E944F0EE091FA00F09115
:10340000FB0080816D8D0E94F90DE091FA00F09132
:10341000FB008181E091FA00F091FB009381692F1C
:1034200040E00E944F0E80E090E0A0E8BFE3898F6B
:103430009A8FAB8FBC8F698D7A8D8B8D9C8D20E0A0
:1034400030E04AEF54E40E941F02DC01CB018D8B77
:103450009E8BAF8BB88F6D897E898F89988D20E088
:1034600030E040E85FE30E94250488232CF481E0EB
:1034700090E09C8B8B8B3FC06D897E898F89988D66
:1034800020E03FEF4FE757E40E94C50318164CF5C4
:10349000698D7A8D8B8D9C8D20E030E040E251E487
:1034A0000E941F02DC01CB01BC01CD010E9449003A
:1034B000DC01CB019C8B8B8B0FC088EC90E09A8B4E
:1034C000898B89899A890197F1F79A8B898B8B89E6
:1034D0009C8901979C8B8B8B8B899C89009769F7C2
:1034E00014C06D897E898F89988D0E944900DC0106
:1034F000CB019C8B8B8B8B899C89988B8F878F853D
:1035000098890197F1F7988B8F87E091FA00F091F5
:10351000FB008181E091FA00F091FB009381692F1B
:1035200041E00E944F0E80E090E0A0E8BFE38B876F
:103530009C87AD87BE876B857C858D859E8520E0C9
:1035400030E04AEF54E40E941F02DC01CB018F837C
:103550009887A987BA876F81788589859A8520E0C1
:1035600030E040E85FE30E94250488232CF481E0EA
:1035700090E09E838D833FC06F81788589859A8591
:1035800020E03FEF4FE757E40E94C50318164CF5C3
:103590006B857C858D859E8520E030E040E251E49E
:1035A0000E941F02DC01CB01BC01CD010E94490039
:1035B000DC01CB019E838D830FC088EC90E09C835F
:1035C0008B838B819C810197F1F79C838B838D8109
:1035D0009E8101979E838D838D819E81009769F7DF
:1035E00014C06F81788589859A850E944900DC0125
:1035F000CB019E838D838D819E819A83898389816E
:103600009A810197F1F79A8389836D960FB6F894A2
:10361000DEBF0FBECDBFCF91DF910895DF93CF9373
:10362000CDB7DEB76D970FB6F894DEBF0FBECDBF36
:103630008D8F86E890E09093FB008093FA00E091F4
:10364000FA00F091FB008181E091FA00F091FB001B
:103650009281692F41E00E944F0EE091FA00F091B3
:10366000FB008181E091FA00F091FB009481692FC9
:1036700040E00E944F0EE091FA00F091FB00818142
:10368000E091FA00F091FB009381692F41E00E94E4
:103690004F0EE091FA00F091FB0080816D8D0E9449
:1036A000F90DE091FA00F091FB008181E091FA00C0
:1036B000F091FB009381692F40E00E944F0E80E063
:1036C00090E0A0E8BFE3898F9A8FAB8FBC8F698DA4
:1036D0007A8D8B8D9C8D20E030E04AEF54E40E947F
:1036E0001F02DC01CB018D8B9E8BAF8BB88F6D8958
:1036F0007E898F89988D20E030E040E85FE30E946A
:10370000250488232CF481E090E09C8B8B8B3FC0B8
:103710006D897E898F89988D20E03FEF4FE757E4D0
:103720000E94C50318164CF5698D7A8D8B8D9C8D82
:1037300020E030E040E251E40E941F02DC01CB01B6
:10374000BC01CD010E944900DC01CB019C8B8B8B1D
:103750000FC088EC90E09A8B898B89899A890197B0
:10376000F1F79A8B898B8B899C8901979C8B8B8B2A
:103770008B899C89009769F714C06D897E898F8930
:10378000988D0E944900DC01CB019C8B8B8B8B892F
:103790009C89988B8F878F8598890197F1F7988BF3
:1037A0008F87E091FA00F091FB008181E091FA00AF
:1037B000F091FB009381692F41E00E944F0E80E061
:1037C00090E0A0E8BFE38B879C87AD87BE876B85C1
:1037D0007C858D859E8520E030E04AEF54E40E9490
:1037E0001F02DC01CB018F839887A987BA876F817D
:1037F000788589859A8520E030E040E85FE30E9483
:10380000250488232CF481E090E09E838D833FC0C3
:103810006F81788589859A8520E03FEF4FE757E4EF
:103820000E94C50318164CF56B857C858D859E8599
:1038300020E030E040E251E40E941F02DC01CB01B5
:10384000BC01CD010E944900DC01CB019E838D8328
:103850000FC088EC90E09C838B838B819C810197C7
:10386000F1F79C838B838D819E8101979E838D834D
:103870008D819E81009769F714C06F817885898555
:103880009A850E944900DC01CB019E838D838D8146
:103890009E819A83898389819A810197F1F79A831E
:1038A00089836D960FB6F894DEBF0FBECDBFCF9162
:1038B000DF910895DF93CF93CDB7DEB781E00E940B
:1038C000C219CF91DF910895DF93CF93CDB7DEB7C3
:1038D00060970FB6F894DEBF0FBECDBF988B8F8771
:1038E0007CC0EF85F88980810E940E1B8F859889A6
:1038F0000196988B8F8780E090E0A0E8BFE38B87EC
:103900009C87AD87BE876B857C858D859E8520E0F5
:1039100030E04AEF54E40E941F02DC01CB018F83A8
:103920009887A987BA876F81788589859A8520E0ED
:1039300030E040E85FE30E94250488232CF481E016
:1039400090E09E838D833FC06F81788589859A85BD
:1039500020E03FEF4FE757E40E94C50318164CF5EF
:103960006B857C858D859E8520E030E040E251E4CA
:103970000E941F02DC01CB01BC01CD010E94490065
:10398000DC01CB019E838D830FC088EC90E09C838B
:103990008B838B819C810197F1F79C838B838D8135
:1039A0009E8101979E838D838D819E81009769F70B
:1039B00014C06F81788589859A850E944900DC0151
:1039C000CB019E838D838D819E819A83898389819A
:1039D0009A810197F1F79A838983EF85F88980812D
:1039E000882309F07ECF60960FB6F894DEBF0FBE35
:1039F000CDBFCF91DF910895DF93CF9300D000D05A
:103A0000CDB7DEB789836A8389818823E1F0898114
:103A10008131C8F48A81282F30E03C832B838B814D
:103A20009C818130910531F02B813C812230310520
:103A300031F009C0898181580E94C21904C089816E
:103A400081540E94C2190F900F900F900F90CF9148
:103A5000DF9108950F931F93DF93CF93CDB7DEB718
:103A60006A970FB6F894DEBF0FBECDBF6F8B788F0D
:103A7000898F9A8F1E821D828F89988DA98DBA8D0C
:103A8000BB230CF070C08F89988DA98DBA8DB0952D
:103A9000A095909581959F4FAF4FBF4F8F8B988F7B
:103AA000A98FBA8F0D811E818F89988DA98DBA8DAE
:103AB0002AE030E040E050E0BC01CD010E94D72078
:103AC000DC01CB01282F205DCE010796FC01E00F21
:103AD000F11F20838D819E8101969E838D838F8926
:103AE000988DA98DBA8D2AE030E040E050E0BC010D
:103AF000CD010E94D720DA01C9018F8B988FA98F41
:103B0000BA8F8F89988DA98DBA8D181619061A0645
:103B10001B0644F21C828D8181508B8318C08B81DF
:103B2000282F30E0CE010796820F931F2C81422F61
:103B300050E09E01295F3F4F240F351FB9010E94BD
:103B40001B1E8C818F5F8C838B8181508B839C812A
:103B50008B81981720F38DE20E940E1BCE010796F1
:103B60000E94641C5DC00D811E818F89988DA98D76
:103B7000BA8D2AE030E040E050E0BC01CD010E9467
:103B8000D720DC01CB01282F205DCE010796FC0158
:103B9000E00FF11F20838D819E8101969E838D838E
:103BA0008F89988DA98DBA8D2AE030E040E050E0F1
:103BB000BC01CD010E94D720DA01C9018F8B988FFB
:103BC000A98FBA8F8F89988DA98DBA8D181619066D
:103BD0001A061B0644F21A828D818150898318C00F
:103BE0008981282F30E0CE010796820F931F2A810A
:103BF000422F50E09E01295F3F4F240F351FB9012E
:103C00000E941B1E8A818F5F8A83898181508983EC
:103C10009A818981981720F3CE0107960E94641C2F
:103C20006A960FB6F894DEBF0FBECDBFCF91DF917D
:103C30001F910F910895DF93CF9300D000D0CDB79F
:103C4000DEB79A8389837C836B83E981FA819081D3
:103C5000EB81FC8180818927E981FA818083E98178
:103C6000FA819081EB81FC8180818927EB81FC8145
:103C70008083E981FA819081EB81FC8180818927B1
:103C8000E981FA8180830F900F900F900F90CF9170
:103C9000DF910895DF93CF93CDB7DEB762970FB66C
:103CA000F894DEBF0FBECDBF898B6A8B80E40E9483
:103CB000C219188A0CC08889882F90E0FC01E15451
:103CC000FF4F80810E940E1B88898F5F888B8889B7
:103CD000803288F380EC0E94C21989896A890E9427
:103CE000FC1C1F8678C08F850E940E1B80E090E030
:103CF000A0EAB0E48B879C87AD87BE876B857C8507
:103D00008D859E8520E030E04AEF54E40E941F023A
:103D1000DC01CB018F839887A987BA876F8178856B
:103D200089859A8520E030E040E85FE30E94250421
:103D300088232CF481E090E09E838D833FC06F81C7
:103D4000788589859A8520E03FEF4FE757E40E9408
:103D5000C50318164CF56B857C858D859E8520E006
:103D600030E040E251E40E941F02DC01CB01BC01C3
:103D7000CD010E944900DC01CB019E838D830FC0E1
:103D800088EC90E09C838B838B819C810197F1F779
:103D90009C838B838D819E8101979E838D838D81F2
:103DA0009E81009769F714C06F81788589859A850F
:103DB0000E944900DC01CB019E838D838D819E8111
:103DC0009A83898389819A810197F1F79A838983FC
:103DD0008F858F5F8F878F85853008F484CF6296BB
:103DE0000FB6F894DEBF0FBECDBFCF91DF9108951F
:103DF000DF93CF9300D000D00F92CDB7DEB79D8375
:103E00008C8381E08B831A8219828C819D8100973B
:103E100019F486E08B8360C01A8232C08A81882FB1
:103E200090E02C813D81880F991F880F991FF9011F
:103E3000E80FF91F50818A81882F90E02C813D8105
:103E4000880F991F880F991F820F931FFC013196CD
:103E500040818A81882F90E02C813D81880F991FB5
:103E6000880F991F820F931FFC0133969081852F35
:103E7000642F492F0E944F0E8B838A818F5F8A8324
:103E80008A81843058F2198224C08981882F90E079
:103E90002C813D810496880F991F880F991FF90185
:103EA000E80FF91F40818981882F90E02C813D81A6
:103EB000880F991F880F991F820F931FFC0131965D
:103EC0009081842F692F0E94A3128B8389818F5F39
:103ED000898389818430C8F28B810F900F900F9075
:103EE0000F900F90CF91DF910895DF93CF93CDB7CF
:103EF000DEB729970FB6F894DEBF0FBECDBF9F8304
:103F00008E83798768871C821B8281E08A838FEF8A
:103F10008D838BE890E09F838E838E819F810097B5
:103F200021F088859985009719F486E08A8397C0E7
:103F30001C8291C0198224C08981882F90E02E8133
:103F40003F81880F991F880F991FF901E80FF91F0A
:103F500040818981882F90E02E813F81880F991FB1
:103F6000880F991F820F931FFC0131969081842F37
:103F7000692F40E00E944F0E8A8389818F5F898379
:103F800089818430C8F28C81882F90E02E813F8116
:103F9000880F991F880F991FF901E80FF91F4081B9
:103FA0008C81882F90E02E813F81880F991F880F88
:103FB000991F820F931FFC0131969081842F692FE6
:103FC00041E00E944F0E1B823FC08B81882F90E002
:103FD0002E813F810496880F991F880F991FF90140
:103FE000E80FF91F40818B81882F90E02E813F815F
:103FF000880F991F880F991F820F931FFC017196DC
:1040000090819E012B5F3F4F842F692FA9010E9451
:10401000FC118A838D818130A1F48C81482F50E07E
:104020008B81282F30E0CA01880F991F880F991FB4
:10403000820F931FFC01E152FF4F8081E885F985D3
:1040400080838B818F5F8B838B81843008F4BDCF1D
:104050008C818F5F8C838C81843008F46BCF8A8154
:1040600029960FB6F894DEBF0FBECDBFCF91DF917A
:104070000895DF93CF93CDB7DEB70E945907CF9154
:10408000DF910895DF93CF93CDB7DEB70E94AB07E2
:10409000CF91DF910895DF93CF93CDB7DEB70E9424
:1040A0002807CF91DF910895DF93CF930F92CDB77B
:1040B000DEB7898389810E948A070F90CF91DF91B3
:1040C0000895DF93CF93CDB7DEB729970FB6F89455
:1040D000DEBF0FBECDBF1B821A8285E08C8386E0D7
:1040E0008D8387E08E8388E08F8380E30E945A0B64
:1040F0000E946F0B282F30E03987288788859985A3
:10410000009731F0288539852130310561F0F0CFF5
:104110000E94F00B8B838A818F5F8A838A8184302F
:10412000B8F31B82E5CF8B81282F332727FD3095ED
:10413000CE010496FC01E20FF31F80810E94A90BBF
:1041400089838B818F5F8B838981882361F31B82B5
:10415000CFCF991B79E004C0991F961708F0961BE2
:10416000881F7A95C9F780950895A1E21A2EAA1B97
:10417000BB1BFD010DC0AA1FBB1FEE1FFF1FA21717
:10418000B307E407F50720F0A21BB30BE40BF50B14
:10419000661F771F881F991F1A9469F7609570959D
:1041A000809590959B01AC01BD01CF01089597FBCF
:1041B000092E05260ED057FD04D0D7DF0AD0001CEB
:1041C00038F450954095309521953F4F4F4F5F4FB4
:1041D0000895F6F790958095709561957F4F8F4F74
:1041E0009F4F08952F923F924F925F926F927F92CE
:1041F0008F929F92AF92BF92CF92DF92EF92FF92F7
:104200000F931F93CF93DF93CDB7DEB7CA1BDB0BA2
:104210000FB6F894DEBF0FBECDBF09942A88398847
:1042200048885F846E847D848C849B84AA84B9844E
:10423000C884DF80EE80FD800C811B81AA81B9815A
:10424000CE0FD11D0FB6F894DEBF0FBECDBFED016E
:064250000895F894FFCF71
:104256000000000000000000400000000000000117
:10426600000001000001010002030000000001003F
:104276000100020002000001000102030400010324
:104286000500010306000103070001030001000306
:104296000101000302010003030100C0F9A4B09963
:1042A6009282F880903F065B4F666D7D077F6F04B4
:1042B6000E15040404040400000A0011110E000087
:1042C600000A000E11110004041F0404001F003729
:1042D60038392F3435362A3132332D43303D2B00D1
:00000001FF
